{
  "contractName": "Verify",
  "abi": [
    {
      "inputs": [],
      "name": "curr",
      "outputs": [
        {
          "internalType": "uint256",
          "name": "",
          "type": "uint256"
        }
      ],
      "stateMutability": "view",
      "type": "function",
      "constant": true
    },
    {
      "inputs": [
        {
          "internalType": "uint256",
          "name": "dur",
          "type": "uint256"
        },
        {
          "internalType": "uint256",
          "name": "startTime",
          "type": "uint256"
        }
      ],
      "name": "duration",
      "outputs": [
        {
          "internalType": "bool",
          "name": "",
          "type": "bool"
        }
      ],
      "stateMutability": "view",
      "type": "function",
      "constant": true
    }
  ],
  "bytecode": "0x608060405234801561001057600080fd5b50610241806100206000396000f3fe608060405234801561001057600080fd5b50600436106100365760003560e01c80633e36eebc1461003b5780638103aa451461006b575b600080fd5b61005560048036038101906100509190610108565b610089565b6040516100629190610163565b60405180910390f35b6100736100c5565b604051610080919061018d565b60405180910390f35b60008042905083838261009c91906101d7565b111580156100aa5750808311155b156100b95760019150506100bf565b60009150505b92915050565b600042905090565b600080fd5b6000819050919050565b6100e5816100d2565b81146100f057600080fd5b50565b600081359050610102816100dc565b92915050565b6000806040838503121561011f5761011e6100cd565b5b600061012d858286016100f3565b925050602061013e858286016100f3565b9150509250929050565b60008115159050919050565b61015d81610148565b82525050565b60006020820190506101786000830184610154565b92915050565b610187816100d2565b82525050565b60006020820190506101a2600083018461017e565b92915050565b7f4e487b7100000000000000000000000000000000000000000000000000000000600052601160045260246000fd5b60006101e2826100d2565b91506101ed836100d2565b925082821015610200576101ff6101a8565b5b82820390509291505056fea26469706673582212207221e063f04af62a2e511ae6cd6f636c1d380b60aebcac534bd934a04eafba5064736f6c634300080a0033",
  "immutableReferences": {},
  "source": "// SPDX-License-Identifier: MIT\npragma solidity ^0.8.0;\n\ncontract Verify {\n\n\n    function curr() public view returns (uint){\n        return block.timestamp;\n    }\n    \n    function duration(uint dur, uint startTime) external view returns (bool){\n        uint currentTime = block.timestamp;\n        if (currentTime-startTime<=dur && startTime<=currentTime){\n            return true;\n        }\n        else{\n            return false;\n        }\n    }\n}",
  "sourcePath": "/Users/amithkonda/courses/20 credits/api/contracts/Verify.sol",
  "compiler": {
    "name": "solc",
    "version": "0.8.10+commit.fc410830.Emscripten.clang"
  },
  "schemaVersion": "3.4.10",
  "updatedAt": "2022-11-16T10:49:29.367Z",
  "networkType": "ethereum",
  "devdoc": {
    "kind": "dev",
    "methods": {},
    "version": 1
  },
  "userdoc": {
    "kind": "user",
    "methods": {},
    "version": 1
  }
}